{
  "contractName": "Auction",
  "abi": [
    {
      "inputs": [],
      "payable": false,
      "stateMutability": "nonpayable",
      "type": "constructor"
    },
    {
      "constant": true,
      "inputs": [],
      "name": "beneficiary",
      "outputs": [
        {
          "internalType": "address payable",
          "name": "",
          "type": "address"
        }
      ],
      "payable": false,
      "stateMutability": "view",
      "type": "function"
    },
    {
      "constant": true,
      "inputs": [],
      "name": "highestBid",
      "outputs": [
        {
          "internalType": "uint256",
          "name": "",
          "type": "uint256"
        }
      ],
      "payable": false,
      "stateMutability": "view",
      "type": "function"
    },
    {
      "constant": true,
      "inputs": [],
      "name": "highestBidder",
      "outputs": [
        {
          "internalType": "address",
          "name": "",
          "type": "address"
        }
      ],
      "payable": false,
      "stateMutability": "view",
      "type": "function"
    },
    {
      "constant": false,
      "inputs": [],
      "name": "bid",
      "outputs": [],
      "payable": true,
      "stateMutability": "payable",
      "type": "function"
    },
    {
      "constant": false,
      "inputs": [],
      "name": "withdraw",
      "outputs": [
        {
          "internalType": "bool",
          "name": "",
          "type": "bool"
        }
      ],
      "payable": false,
      "stateMutability": "nonpayable",
      "type": "function"
    },
    {
      "constant": false,
      "inputs": [],
      "name": "auctionEnd",
      "outputs": [],
      "payable": false,
      "stateMutability": "nonpayable",
      "type": "function"
    }
  ],
  "bytecode": "0x608060405234801561001057600080fd5b50336000806101000a81548173ffffffffffffffffffffffffffffffffffffffff021916908373ffffffffffffffffffffffffffffffffffffffff1602179055506106cc806100606000396000f3fe6080604052600436106100555760003560e01c80631998aeef1461005a5780632a24f46c1461006457806338af3eed1461007b5780633ccfd60b146100d257806391f9015714610101578063d57bde7914610158575b600080fd5b610062610183565b005b34801561007057600080fd5b50610079610343565b005b34801561008757600080fd5b506100906104d5565b604051808273ffffffffffffffffffffffffffffffffffffffff1673ffffffffffffffffffffffffffffffffffffffff16815260200191505060405180910390f35b3480156100de57600080fd5b506100e76104fa565b604051808215151515815260200191505060405180910390f35b34801561010d57600080fd5b5061011661061e565b604051808273ffffffffffffffffffffffffffffffffffffffff1673ffffffffffffffffffffffffffffffffffffffff16815260200191505060405180910390f35b34801561016457600080fd5b5061016d610644565b6040518082815260200191505060405180910390f35b600460009054906101000a900460ff1615610206576040517f08c379a00000000000000000000000000000000000000000000000000000000081526004018080602001828103825260168152602001807f41756374696f6e20616c726561647920656e6465642e0000000000000000000081525060200191505060405180910390fd5b600254341161027d576040517f08c379a000000000000000000000000000000000000000000000000000000000815260040180806020018281038252601e8152602001807f546865726520616c7265616479206973206120686967686572206269642e000081525060200191505060405180910390fd5b6000600254146102f95760025460036000600160009054906101000a900473ffffffffffffffffffffffffffffffffffffffff1673ffffffffffffffffffffffffffffffffffffffff1673ffffffffffffffffffffffffffffffffffffffff168152602001908152602001600020600082825401925050819055505b33600160006101000a81548173ffffffffffffffffffffffffffffffffffffffff021916908373ffffffffffffffffffffffffffffffffffffffff16021790555034600281905550565b6000809054906101000a900473ffffffffffffffffffffffffffffffffffffffff1673ffffffffffffffffffffffffffffffffffffffff163373ffffffffffffffffffffffffffffffffffffffff16146103e8576040517f08c379a000000000000000000000000000000000000000000000000000000000815260040180806020018281038252602a81526020018061066e602a913960400191505060405180910390fd5b600460009054906101000a900460ff161561044e576040517f08c379a000000000000000000000000000000000000000000000000000000000815260040180806020018281038252602381526020018061064b6023913960400191505060405180910390fd5b6001600460006101000a81548160ff0219169083151502179055506000809054906101000a900473ffffffffffffffffffffffffffffffffffffffff1673ffffffffffffffffffffffffffffffffffffffff166108fc6002549081150290604051600060405180830381858888f193505050501580156104d2573d6000803e3d6000fd5b50565b6000809054906101000a900473ffffffffffffffffffffffffffffffffffffffff1681565b600080600360003373ffffffffffffffffffffffffffffffffffffffff1673ffffffffffffffffffffffffffffffffffffffff1681526020019081526020016000205490506000811115610615576000600360003373ffffffffffffffffffffffffffffffffffffffff1673ffffffffffffffffffffffffffffffffffffffff168152602001908152602001600020819055503373ffffffffffffffffffffffffffffffffffffffff166108fc829081150290604051600060405180830381858888f193505050506106145780600360003373ffffffffffffffffffffffffffffffffffffffff1673ffffffffffffffffffffffffffffffffffffffff16815260200190815260200160002081905550600091505061061b565b5b60019150505b90565b600160009054906101000a900473ffffffffffffffffffffffffffffffffffffffff1681565b6002548156fe61756374696f6e456e642068617320616c7265616479206265656e2063616c6c65642e4f6e6c792042656e696669636961727920697320616c6c6f77656420746f2063616c6c206d6574686f64a265627a7a723158204b6c45586c778f56c0578d92ca8fd15a8732a31c35ad3461ff51a9c0f12bc64d64736f6c63430005100032",
  "source": "pragma solidity ^0.5.0;\n\ncontract Auction {\n    address payable public beneficiary;\n    // Current state of the auction. You can create more variables if needed\n    address public highestBidder;\n    uint public highestBid;\n\n    // Allowed withdrawals of previous bids\n    mapping(address => uint) pendingReturns;\n\n    bool auctionEnded;\n\n    // Constructor\n    constructor() public {\n        beneficiary = msg.sender;\n    }\n\n    /// Bid on the auction with the value sent\n    /// together with this transaction.\n    /// The value will only be refunded if the\n    /// auction is not won.\n    function bid() public payable {\n\n        require(\n            !auctionEnded,\n            \"Auction already ended.\"\n        );\n\n        // TODO If the bid is not higher than highestBid, send the\n        // money back. Use \"require\"\n         require(\n            msg.value > highestBid,\n            \"There already is a higher bid.\"\n        );\n        // TODO update state\n\n        // TODO store the previously highest bid in pendingReturns. That bidder\n        // will need to trigger withdraw() to get the money back.\n        // For example, A bids 5 ETH. Then, B bids 6 ETH and becomes the highest bidder. \n        // Store A and 5 ETH in pendingReturns. \n        // A will need to trigger withdraw() later to get that 5 ETH back.\n        if (highestBid != 0) {\n                pendingReturns[highestBidder] += highestBid;\n        }\n        // Sending back the money by simply using\n        // highestBidder.send(highestBid) is a security risk\n        // because it could execute an untrusted contract.\n        // It is always safer to let the recipients\n        // withdraw their money themselves.\n        highestBidder = msg.sender;\n        highestBid = msg.value;\n    }\n\n    /// Withdraw a bid that was overbid.\n    function withdraw() public returns (bool) {\n        uint amount = pendingReturns[msg.sender];\n        if (amount > 0) {\n        // TODO send back the amount in pendingReturns to the sender. Try to avoid the reentrancy attack. Return false if there is an error when sending\n          pendingReturns[msg.sender] = 0;\n\n            if (!msg.sender.send(amount)) {\n                // No need to call throw here, just reset the amount owing\n                pendingReturns[msg.sender] = amount;\n                return false;\n            }\n        }\n        return true;\n    }\n\n    /// End the auction and send the highest bid\n    /// to the beneficiary.\n    function auctionEnd() public {\n        // TODO make sure that only the beneficiary can trigger this function. Use \"require\"\n         require(msg.sender==beneficiary, \"Only Benificiary is allowed to call method\");\n        require(!auctionEnded, \"auctionEnd has already been called.\");\n\n        // TODO send money to the beneficiary account. Make sure that it can't call this auctionEnd() multiple times to drain money\n        auctionEnded = true;\n        beneficiary.transfer(highestBid);\n    }\n}",
  "sourcePath": "C:\\Users\\Aniket\\Documents\\hw1-source\\contracts\\Auction.sol",
  "compiler": {
    "name": "solc",
    "version": "0.5.16+commit.9c3226ce.Emscripten.clang"
  },
  "schemaVersion": "3.0.23",
  "updatedAt": "2020-02-24T23:35:00.146Z",
  "networkType": "ethereum",
  "devdoc": {
    "methods": {}
  },
  "userdoc": {
    "methods": {
      "auctionEnd()": {
        "notice": "End the auction and send the highest bid to the beneficiary."
      },
      "bid()": {
        "notice": "Bid on the auction with the value sent together with this transaction. The value will only be refunded if the auction is not won."
      },
      "withdraw()": {
        "notice": "Withdraw a bid that was overbid."
      }
    }
  }
}